:020000040800F2
:100000007022002045010008770B00086F0B0008E4
:10001000730B00082503000875130008000000009A
:100020000000000000000000000000003D0D00087E
:100030002903000800000000250C0008290E000814
:100040005F0100085F0100085F0100085F01000810
:100050005F0100085F0100085F0100085F01000800
:100060005F0100085F0100085F0100085F010008F0
:100070005F0100085F0100085F0100085F010008E0
:100080005F0100085F0100085F0100085F010008D0
:100090005F0100085F0100085F0100085F010008C0
:1000A0005F0100085F0100085F0100085F010008B0
:1000B0005F0100085F0100085F0100085F010008A0
:1000C0005F0100085F0100085F0100085F01000890
:1000D0005F0100085F0100085D0F0008650F000860
:1000E0005F0100085F0100085F0100085F01000870
:1000F0005F0100085F0100085F0100085F01000860
:100100005F0100085F0100085F0100085F0100084F
:100110005F0100085F0100085F0100085F0100083F
:100120005F0100085F0100085F0100085F0100082F
:10013000DFF80CD000F07AF8004800470D180008EE
:10014000702200200648804706480047FEE7FEE789
:10015000FEE7FEE7FEE7FEE7FEE7FEE7FEE7FEE777
:10016000D50E000831010008D2B201E000F8012BE1
:10017000491EFBD270470022F6E710B513460A4627
:1001800004461946FFF7F0FF204610BD421E12F844
:10019000013F002BFBD111F8013B02F8013B002B82
:1001A000F9D1704730B505462A460B4612F8010BC7
:1001B00013F8014B08B1A042F8D01CB1002802D0BE
:1001C0006D1CF1E7284630BD2DE9F05F05460020A3
:1001D00092469B4688460646814640241BE02846B8
:1001E00041464746224600F042F853465A46C01A56
:1001F000914110D311461846224600F029F82D1AD5
:1002000067EB01084F4622460120002100F020F84C
:1002100017EB00094E41201EA4F10104DFDC484623
:1002200031462A464346BDE8F09F0000064C074D84
:1002300006E0E06840F0010394E8070098471034B6
:10024000AC42F6D3FFF778FFD8180008F81800087A
:10025000202A04DB203A00FA02F100207047914086
:10026000C2F1200320FA03F3194390407047202A7B
:1002700004DB203A21FA02F00021704721FA02F350
:10028000D040C2F120029140084319467047000057
:1002900000B585B00121480400F0C6FC012104200E
:1002A00000F0D2FC0420ADF8100018208DF81300E7
:1002B00003208DF8120004A9184800F0C9FB08209B
:1002C000ADF8100004208DF8130004A9134800F0C5
:1002D000BFFB4FF4164000900020ADF80400ADF8CD
:1002E0000600ADF80800ADF80C000C20ADF80A00CF
:1002F00069460B4800F046FF00F03EFC012240F248
:100300002551074800F019FF0121054800F092FE31
:100310004021034800F076FE05B000BD0008014012
:100320000044004000BFFEE77047000010B5002405
:100330004FF400710C4800F018FC4FF47A7001F093
:10034000C1FA0CE04FF4FA73002208A108A000F0F3
:1003500011F800B110BD00F017FA601CC4B20A2CED
:10036000F0DB00BFF6E70000000C01404F4B00003F
:10037000415400002DE9F04106460C4615461F4643
:100380002548B0F800046FF30E002349A1F80004DB
:10039000324622A1234800F06AFF1CB915B901209A
:1003A000BDE8F081384601F08DFA00201A49B1F815
:1003B0000014C1F30E01184A505411461AA000F05F
:1003C000DBFFB4B1ADB121461348FFF7EBFE08B136
:1003D000012000E0002040B929460F48FFF7E2FE67
:1003E00008B1012000E0002008B10120D8E700207A
:1003F000D6E744B121460848FFF7D4FE08B10120F2
:10040000CEE70020CCE729460348FFF7CBFE08B132
:100410000120C5E70020C3E7680E002025730D0A00
:1004200000000000004800402573000010B586B0B1
:1004300004460CB1012000E00020024606A101A8FC
:1004400000F0AAFF4FF4FA73002207A101A8FFF7FA
:1004500091FF06B010BD000041542B4349504D554B
:10046000583D2564000000004F4B000010B54FF4CC
:10047000967001F027FA04A1044800F0F8FE4FF44A
:10048000967001F01FFA10BD2B2B2B000048004086
:1004900008B50121082000F0D7FB4FF48070ADF8BB
:1004A000000010208DF8030003208DF8020069463B
:1004B000074800F0CDFA0121082000F0C5FB4FF4F9
:1004C0000070ADF800006946014800F0C1FA08BDAF
:1004D000000C014010B54FF4967300220DA10EA040
:1004E000FFF748FFA0B110A11248FFF75BFE08B16B
:1004F000022010BD10A10F48FFF754FE08B10320E1
:10050000F7E710A10B48FFF74DFE08B10420F0E714
:100510000020EEE74F4B000041542B434950535409
:1005200041545553000000005354415455533A323E
:100530000D0A0000680E00205354415455533A33BD
:100540000D0A00005354415455533A340D0A00002B
:1005500010B5FFF79DFF00F079F94FF400711448D2
:1005600000F003FB4FF48071114800F0FCFA11A079
:1005700000F002FF4FF480710D4800F0F6FAFFF72B
:10058000D5FE002000F0C4F800BF11A113A000F0B8
:100590003FF80028F9D00020FFF748FF052310A2FC
:1005A00011A1002000F054F813A000F0E5FE10BDEA
:1005B000000C01400D0AD5FDD4DAC5E4D6C32045B0
:1005C000535038323636202E2E2E2E2E2E0D0A0067
:1005D0006A68313132333538000000006A6A6A00D7
:1005E00038303831000000003139322E3136382EA3
:1005F000382E3132350000000D0AC5E4D6C320453F
:1006000053503832363620CDEAB1CF0D0A00000003
:1006100030B59FB004460D462B46224606A101A8E0
:1006200000F0BAFE41F28833002208A101A8FFF7CA
:10063000A1FE1FB030BD000041542B43574A41502A
:100640003D222573222C2225732200004F4B0000EF
:10065000F0B5B9B006460F4614461D46642120A8E1
:10066000FFF789FD16B1012E10D107E03B4614A219
:1006700014A120A8009400F08FFE08E03B4615A2CC
:1006800010A120A8009400F087FE00E000BF00BF8A
:10069000052D06DA20AB2A460FA102A800F07CFE49
:1006A00004E020AA11A102A800F076FE4FF47A63BC
:1006B00012A216A102A8FFF75DFE39B0F0BD00003E
:1006C00054435000222573222C222573222C25739B
:1006D000000000005544500041542B4349505354EE
:1006E0004152543D25642C257300000041542B4396
:1006F000495053544152543D25730000414C5245DA
:10070000415920434F4E4E45435400004F4B00008B
:1007100010B5044624B1012C0AD0022C18D10FE0E8
:1007200040F6C4130BA20EA10EA0FFF723FE10BDCE
:1007300040F6C41307A20AA10DA0FFF71BFEF6E7BF
:1007400040F6C41303A206A10CA0FFF713FEEEE7C8
:100750000020ECE76E6F206368616E676500000043
:100760004F4B000041542B43574D4F44453D310002
:1007700041542B43574D4F44453D320041542B4388
:10078000574D4F44453D330010B54FF400710648B6
:1007900000F0E9F94FF4FA7001F094F84FF40071A9
:1007A000014800F0E2F910BD000C01402DE9F041D4
:1007B00086B007460C4615461E464FF000083FB16E
:1007C000224614A1144800F052FD4FF001081CE02D
:1007D000052E06DAAB1C324610A101A800F0DCFDA4
:1007E00004E0AA1C12A101A800F0D6FD4FF4FA7390
:1007F000002213A101A8FFF7BDFD4FF4FA730022F8
:1008000010A12046FFF7B6FD8046404606B0BDE881
:10081000F0810000257300000048004041542B4344
:10082000495053454E443D25642C2564000000008A
:1008300041542B43495053454E443D25640000002C
:100840003E20000053454E44204F4B0000B585B07C
:100850000121880400F0E8F90121082000F0F4F9F2
:100860004FF48060ADF8100018208DF813000320BD
:100870008DF8120004A91A4800F0EAF84FF400605D
:10088000ADF8100004208DF8130004A9144800F0FE
:10089000DFF84FF4E13000900020ADF80400ADF82F
:1008A0000600ADF80800ADF80C000C20ADF80A0009
:1008B00069460C4800F066FC012240F225510948C7
:1008C00000F03BFC012240F22441064800F035FCD8
:1008D00000F00AF80121034800F0ACFB05B000BDB0
:1008E000000C01400048004008B54FF4A06000F043
:1008F0008FF927208DF8000000208DF801008DF879
:10090000020001208DF80300684600F049F908BD97
:1009100010B54FF49673002207A108A0FFF72AFD37
:1009200008B9002010BD4FF4967308A202A108A0D8
:10093000FFF720FDF6E700004F4B000041542B432A
:1009400049504D4F44453D31000000003E0000003D
:1009500041542B43495053454E4400002DE9F0418A
:100960000446002500260027FFF7B4FD04280FD118
:100970004FF4FA73002218A118A0FFF7FBFC05231F
:100980001AA21CA10020FFF763FEFFF7C1FF01E0E0
:10099000FFF7BEFF0523002221460120FFF706FFD7
:1009A0000523002217A10120FFF700FF05230022E5
:1009B0001BA10120FFF7FAFE052300221DA1012043
:1009C000FFF7F4FE0523002214A10120FFF7EEFE3D
:1009D000FFF74CFDBDE8F0814F4B000041542B4325
:1009E0004950434C4F53450D0A0000003830383110
:1009F000000000003139322E3136382E382E313297
:100A000035000000486F73743A203139322E313688
:100A1000382E382E3132353A383038310D0A000050
:100A2000557365722D4167656E743A206162630D7E
:100A30000A000000436F6E6E656374696F6E3A2042
:100A40004B65657020416C6976650D0A00000000F9
:100A50002DE9F04102460025002600200023002455
:100A6000002791F803C00CF00F0591F803C00CF0BB
:100A7000100CBCF1000F03D091F802C04CEA050540
:100A800091F800C0BCF1000F31D0146800202BE0B9
:100A90004FF0010C0CFA00F3B1F800C00CEA0306A9
:100AA0009E4220D183004FF00F0C0CFA03F7BC4399
:100AB00005FA03FC4CEA040491F803C0BCF1280FCA
:100AC00006D14FF0010C0CFA00FCC2F814C00AE089
:100AD00091F803C0BCF1480F05D14FF0010C0CFA9E
:100AE00000FCC2F810C0401C0828D1D31460B1F833
:100AF00000C0BCF1FF0F34DD546800202EE000F18F
:100B0000080C4FF0010808FA0CF3B1F800C00CEA29
:100B100003069E4221D183004FF00F0C0CFA03F71D
:100B2000BC4305FA03FC4CEA040491F803C0BCF191
:100B3000280F05D100F1080C08FA0CF8C2F814804F
:100B400091F803C0BCF1480F07D100F1080C4FF039
:100B5000010808FA0CF8C2F81080401C0828CED30F
:100B60005460BDE8F081416170470161704700BF8A
:100B7000FEE700BFFEE7704708B54FF4E06000F005
:100B800047F826208DF8000001208DF801008DF82F
:100B900002008DF80300684600F002F808BD00006E
:100BA00070B5002100230F22C47804B3154C2468CB
:100BB00004F4E064C4F5E064210AC1F10403CA400E
:100BC000447804FA03F184781440214309010E4C5F
:100BD0000678A155047804F01F050124AC4005787F
:100BE0006D11AD0005F1E025C5F8004109E004787C
:100BF00004F01F050124AC40044D0678761145F839
:100C0000264070BD0CED00E000E400E080E100E073
:100C100002490143024A1160704700000000FA05D2
:100C20000CED00E07047000029B1064AD26902438A
:100C3000044BDA6104E0034AD2698243014BDA6172
:100C4000704700000010024029B1064A9269024331
:100C5000044B9A6104E0034A92698243014B9A6112
:100C6000704700000010024030B50021002200242F
:100C700000232D4D6D6805F00C0121B1042905D02C
:100C8000082923D105E0294D056022E0274D0560A4
:100C90001FE0254D6D6805F47012234D6D6805F455
:100CA0008034022505EB92421CB9214D5543056065
:100CB0000BE01D4D6D6805F400351DB11C4D55430D
:100CC000056002E0194D5543056002E0174D0560CF
:100CD00000BF00BF144D6D6805F0F0010909154D06
:100CE0006B5C0568DD4045600F4D6D6805F4E061A3
:100CF000090A104D6B5C4568DD4085600A4D6D68E2
:100D000005F46051C90A0B4D6B5C4568DD40C56058
:100D1000054D6D6805F44041890B074D6B5CC56856
:100D2000B5FBF3F5056130BD0010024000127A00FA
:100D300000093D001400002024000020704710B579
:100D400000F002F810BD00000CB5002001900090EA
:100D50003348006840F480303149086000BF3048B3
:100D6000006800F4003000900198401C0190009849
:100D700018B90198B0F5A06FF1D12948006800F4C6
:100D8000003010B10120009001E000200090009898
:100D9000012843D12348006840F010002149086031
:100DA0000846006820F0030008600846006840F02C
:100DB000020008601A4840681949486008464068BF
:100DC00048600846406840F48060486008464068D3
:100DD00020F47C1048600846406840F4E810486001
:100DE0000846006840F08070086000BF0C4800684A
:100DF00000F000700028F9D00948406820F0030096
:100E0000074948600846406840F00200486000BF5B
:100E10000348406800F00C000828F9D10CBD000020
:100E2000001002400020024010B500F08BF800F0E6
:100E300081F800240CE0084850F8240030B106483E
:100E400050F82400401E044941F82400601CC4B23C
:100E5000032CF0DB10BD00003C00002030B51A4828
:100E600000684FF47A72B0FBF2F1B1F1807F01D3E8
:100E700001201DE021F07F40401E4FF0E022506134
:100E800050170F22002807DA13071D0E0F4B00F032
:100E90000F04241F1D5503E013071C0E0C4B1C549C
:100EA00000BF00204FF0E022906107201061002079
:100EB00008B100BFFEE74FF0E020006920F001001C
:100EC0004FF0E021086130BD0000002018ED00E087
:100ED00000E400E010B51348006840F0010011493B
:100EE000086008464068104908400E4948600846B6
:100EF00000680E4908400B4908600846006820F465
:100F0000802008600846406820F4FE0048604FF4E6
:100F10001F008860FFF713FF4FF00060044908606E
:100F200010BD0000001002400000FFF8FFFFF6FEB9
:100F300008ED00E002480068401C01490860704765
:100F4000300000200448006820B103480068401EBB
:100F500001490860704700002C00002010B500F027
:100F6000A5FB10BD10B540F22551204800F0BBF89C
:100F7000D8B11E4800F072F9C4B21D48B0F80004A0
:100F8000C0F30E0040F2FF3188420EDA1849B1F882
:100F90000014C1F30E00411C154AB2F8002461F39D
:100FA0000E021349A1F800240C5440F224410F48CA
:100FB00000F099F8012817D10D48B0F8000420F48A
:100FC000004000F500400A49A1F80004074800F07D
:100FD00045F9C4B207A10648FFF7E4F808B10120BB
:100FE00000E000200649087010BD000000480040E5
:100FF000680E0020434C4F5345440D0A000000008A
:101000003400002001F40072B2F5007F00D100BF6F
:10101000CA430280704710B50022002340F66A14CC
:10102000A14200D100BF0A1201249440A3B2DC43C4
:10103000048010BD21B1828942F40052828104E013
:1010400082894DF6FF731A408281704700B585B0E2
:1010500001210420FFF7F8FD01218803FFF7F4FDCB
:101060004FF40070ADF8100018208DF81300032025
:101070008DF8120004A91348FFF7EAFC4FF48060D2
:10108000ADF8100004208DF8130004A90D48FFF7F7
:10109000DFFC4FF4E13000900020ADF80400ADF823
:1010A0000600ADF80800ADF80C000C20ADF80A0001
:1010B0006946054800F066F801210348FFF7BAFFCA
:1010C00005B000BD00080140003801400246002084
:1010D000B1F5007F00D100BF13880B400BB1012098
:1010E00000E00020704770B5024600240023002570
:1010F000002040F66A16B14200D100BFC1F342158C
:1011000001F01F03012606FA03F3012D02D196898F
:10111000334006E0022D02D1168A334001E0968A60
:1011200033400C12012606FA04F41688344013B139
:101130000CB1012000E0002070BDF0B50346002492
:1011400000260025002040F66A17B94200D100BFF2
:101150001846C1F3421401F01F06012707FA06F5ED
:10116000012C01D10C3004E0022C01D1103000E040
:1011700014301AB107682F43076002E00768AF43D5
:101180000760F0BD2DE9F04786B005460E46002405
:10119000A24600BFA1460027B08900B100BF2F467C
:1011A0002C8A4CF6FF700440F08804432C82AC89F2
:1011B0004EF6F3100440B088318908437189084322
:1011C0000443AC81AC8A4FF6FF400440B08904432D
:1011D000AC8201A8FFF748FD1F48874202D1DDF825
:1011E00010A001E0DDF80CA0A88900F4004040B197
:1011F0000AEBCA0000EB0A1031684900B0FBF1F8B5
:1012000007E00AEBCA0000EB0A1031688900B0FB66
:10121000F1F86420B8FBF0F004012009642101FB1F
:101220001089A88900F4004040B1322000EBC900C9
:10123000B0FBF1F000F00700044308E0322000EBBF
:1012400009106421B0FBF1F000F00F0004432C8181
:1012500006B0BDE8F08700000038014001468888EC
:10126000C0F308007047C1F30802828070470FB4D2
:1012700070B586B006460CA8019073E00B98007814
:101280005C281CD10B98401C0B9000786E2809D06C
:1012900072280FD10D213046FFF7E5FF0B98401C57
:1012A0000B900BE00A213046FFF7DDFF0B98401C46
:1012B0000B9003E00B98401C0B9000BF4BE00B9889
:1012C0000078252840D10B98401C0B9000786428AA
:1012D00018D0732833D1019810C801900BE0217801
:1012E0003046FFF7C0FF00BF80213046FFF7EEFE1B
:1012F0000028F9D0641C20780028F0D10B98401CFD
:101300000B9020E0019820C801900A2202A92846EB
:1013100000F04AFA02AC0BE021783046FFF7A3FF59
:1013200000BF80213046FFF7D1FE0028F9D0641CB1
:1013300020780028F0D10B98401C0B9003E00B980C
:10134000401C0B9000BF06E00B9810F8011B0B909F
:101350003046FFF788FF00BF80213046FFF7B6FE1A
:101360000028F9D00B980078002887D106B070BC0F
:101370005DF814FB00BFFEE70FB4054B10B503A9E1
:10138000044A029800F02CF810BC5DF814FB000031
:1013900025170008380000200FB4084B10B504A929
:1013A00002AA039800F01CF8044602A9002000F0ED
:1013B00077F9204610BC5DF814FB0000A116000868
:1013C00002E008C8121F08C1002AFAD1704770470E
:1013D000002001E001C1121F002AFBD1704700006C
:1013E0002DE9FF4F8DB09B460F460446002606E0D0
:1013F00025280BD05A460F999047641C761C2078FC
:101400000028F5D111B03046BDE8F08F0025A84680
:101410000122984900E0054314F8013F203B02FAFD
:1014200003F00842F7D120782E2817D114F8010FC5
:1014300045F004052A280ED06FF02F022078A0F185
:10144000300109290AD808EB880102EB410100EBC1
:101450000108641CF2E757F8048B641C20786C28A0
:101460000DD004DC4C2812D06A2811D104E0742875
:101470000DD07A280CD10AE045F4001507E0617818
:1014800045F48015814202D1641C05F58015641C69
:101490002278692A45D008DC002AB3D0582A69D0BE
:1014A000632A10D0642A08D13BE0702A67D0732ADF
:1014B00013D0752A5CD0782A5CD010465A460F9912
:1014C0009047761CD3E017F8040B8DF8000000203D
:1014D0008DF80100E946012003E057F8049B4FF026
:1014E000FF3069074FF0000501D40AE06D1C454547
:1014F0000DDA8542FADB19F805100029F6D106E06D
:101500006D1C8542FCDB19F805100029F8D12E442A
:1015100004E019F8010B5A460F9990476D1EF8D256
:10152000A5E00A200021CDE90801C5F302500228F8
:101530000DD001CFC117031E71F100030DDA4FF07A
:10154000000CD0EB0C006CEB01012D2308E0FF1D1B
:1015500027F00707F7E80201EDE72B0504D52B2359
:101560008DF8283001233BE0EB0739D02023F7E743
:101570000A2000E010200021CDE9080107E010203A
:10158000002145F00405CDE908014FF00808C5F336
:10159000025002280FD001CF00214FF0000A2B0784
:1015A0001FD5702A0DD0DDE908C38CF0100C5CEA61
:1015B000030C0CD015E0FF1D27F00707F7E8020128
:1015C000EBE740228DF828204FF0010A0BE050EAAB
:1015D000010306D030238DF828308DF8292002230E
:1015E0009A46582A04D024A20DF120090B9209E052
:1015F00026A2F9E7DDE90823FEF7E6FD0B9B9B5CDD
:1016000009F8013D50EA0102F4D1ADEB09002030A8
:101610000890680701D44FF001080899884502DD59
:10162000A8EB010000E000208046002506E00AA8A3
:101630005A46405D0F9990476D1C761C5545F6DB68
:1016400004E030205A460F999047761CB8F100010B
:10165000A8F10108F5DC05E019F8010B5A460F99CD
:101660009047761C0899481E08900029F4DC641CF9
:10167000C5E60000092801003031323334353637F1
:1016800038396162636465660000000030313233CE
:10169000343536373839414243444546000000006E
:1016A0000A68531C0B6010707047000010B510489A
:1016B0000088B0F5806F12DA40F225510D48FFF72F
:1016C00012FD98B10B48FFF7C9FD0B49084A128873
:1016D000885407480088401C0549088006E040F20D
:1016E00025510448FFF797FC00F008F810BD0000F2
:1016F0002800002000440040680A002040F2014019
:101700000021064A118005E00022411E89B20846E8
:10171000034B5A540028F7D17047000028000020DE
:10172000680A002070B504460D46E1B20548FFF78F
:101730009AFD00BF80210348FFF7C8FC0028F9D0BC
:10174000204670BD00380140F0B503460C461546F2
:10175000002221460BE00F781046521C1F54491CF2
:1017600008780A2802D008780D2800D103E008780C
:1017700008B1AA42EFDB00BF087838B108780A2820
:1017800004D008780D2801D00020F0BD0020985426
:101790001046FAE701460248008808800148704771
:1017A00028000020680A0020F0B503460D461646C2
:1017B000002729460A2E03D0002008702846F0BDD5
:1017C00033B9302001F8010B002008702846F6E7F5
:1017D000002B03DA2D2001F8010B5B4242F210725C
:1017E0000DE093FBF2F404B937B104F1300001F8D5
:1017F000010B04FB123301270A2092FBF0F2002AAE
:10180000EFDC002008702846D9E70000ADF5BC6D7C
:1018100000BF00BF00BF00BFFFF720FB4FF0E0207C
:10182000006940F001004FF0E0210861FFF70EFC75
:10183000FEF72EFDFEF78CFE30E019480068002808
:101840002CD16846FFF7A6FF0546BDF800202946C3
:101850001448FFF779FF84B2DCB1192C19DB114968
:1018600011A0FFF789FD40F2DC5101A8FEF783FCCF
:101870000EA101A8FEF78AFC0A4901A8FEF786FC22
:101880000DA101A8FEF782FC01A8FFF767F8FFF79A
:1018900035FF4FF496700249086000BFCDE70000A5
:1018A0003C0000206806002025730A0047455420AC
:1018B0002F7570646174650020485454502F312E88
:1018C000310D0A000349086000BF02490968002978
:1018D000FBD170472C000020F81800080000002001
:1018E0003C000000C0130008341900083C00002030
:1018F00034220000D013000800A24A0400000000B7
:1019000000000000010203040607080900000000AF
:101910000102030401020304060708090204060881
:1019200000000000000000000000000000000000B7
:0419300000000000B3
:0400000508000145A9
:00000001FF
